:020000040800F2
:100000000010002021150008691500086915000876
:10001000691500086915000869150008000000004E
:10002000000000000000000000000000691500084A
:10003000691500080000000069150008691500082E
:1000400000000000000000000000000000000000B0
:1000500000000000000000000000000000000000A0
:100060000000000000000000000000000000000090
:100070000000000000000000000000000000000080
:100080000000000000000000000000000000000070
:100090000000000000000000000000000000000060
:1000A0000000000000000000000000000000000050
:1000B0000000000000000000000000000000000040
:1000C0000000000000000000000000000000000030
:1000D0000000000000000000000000000000000020
:1000E0000000000000000000000000000000000010
:1000F0000000000000000000000000000000000000
:1001000000000000000000000000000000000000EF
:1001100000000000000000000000000000000000DF
:1001200000000000000000000000000000000000CF
:1001300000000000000000000000000000000000BF
:1001400000000000000000000000000000000000AF
:10015000000000000000000000000000000000009F
:10016000000000000000000000000000000000008F
:10017000000000000000000000000000000000007F
:08018000000000000000000077
:10018800054B0648033310B51B1A062B03D9044B3D
:10019800002B00D0984710BD140200201402002044
:1001A800000000000648074910B5091A8910CB0F4E
:1001B8005918491003D0044B002B00D0984710BDA4
:1001C80014020020140200200000000010B5074CA3
:1001D8002378002B09D1FFF7D3FF054B002B02D062
:1001E800044800E000BF0123237010BD1402002062
:1001F800000000006C150008094B10B5002B03D057
:100208000849094800E000BF08480368002B02D1EC
:10021800FFF7C8FF10BD064B002BF9D09847F7E74A
:1002280000000000180200206C15000814020020CD
:100238000000000002B4714649084900095C490001
:100248008E4402BC7047C046002243088B4274D3D8
:1002580003098B425FD3030A8B4244D3030B8B42BF
:1002680028D3030C8B420DD3FF22090212BA030CC8
:100278008B4202D31212090265D0030B8B4219D3A9
:1002880000E0090AC30B8B4201D3CB03C01A5241C9
:10029800830B8B4201D38B03C01A5241430B8B4211
:1002A80001D34B03C01A5241030B8B4201D30B03FA
:1002B800C01A5241C30A8B4201D3CB02C01A524121
:1002C800830A8B4201D38B02C01A5241430A8B42E4
:1002D80001D34B02C01A5241030A8B4201D30B02CD
:1002E800C01A5241CDD2C3098B4201D3CB01C01AE7
:1002F800524183098B4201D38B01C01A52414309F1
:100308008B4201D34B01C01A524103098B4201D3DE
:100318000B01C01A5241C3088B4201D3CB00C01A4B
:10032800524183088B4201D38B00C01A52414308C3
:100338008B4201D34B00C01A5241411A00D20146E8
:10034800524110467047FFE701B5002000F006F85B
:1003580002BDC0460029F7D076E770477047C0460F
:1003680070B50D4E0D4D0024AD1BAD1005D0A3008A
:10037800F35801349847A542F9D101F0F3F8084E33
:10038800084D0024AD1BAD1005D0A300F35801346F
:100398009847A542F9D170BDA8150008A81500080E
:1003A800A8150008AC150008F0B505000F2A2FD9CC
:1003B8000B0003439B0734D116000C000300103ECA
:1003C800350901352D01451927681F6067685F6089
:1003D800A7689F60E7681034DF6010339D42F3D14F
:1003E8000F239E431036851989191340032B1AD9F8
:1003F8001E1F0023B4080134A400CF58EF50043363
:10040800A342FAD10324A643331D2240C918ED188C
:10041800002A05D00023CC5CEC5401339342FAD176
:10042800F0BD0500F6E71A00F2E7C0460020704765
:100438000278437812021343014A00201380704760
:100448000000002010B501F066F8002010BD10B5BE
:1004580001F057F8002010BD10B5040001F059F85C
:1004680000F022FA200001F050F800F025FA2000F0
:1004780001F050F822001021722000F0D5F8002079
:1004880010BD000070B50400002501F042F80B4BC8
:100498001B889D4209D3200001F03CF8220010215E
:1004A800722000F0C1F8002070BD00F0FDF92000B6
:1004B80001F02BF8013500F0FFF9E8E70000002013
:1004C8001FB5102219496846FFF76EFF00F05CF966
:1004D80000F086F900F0C4F901F012F8684601F05E
:1004E80010F800F089F8124A10216B2000F07EF80D
:1004F800104A1021702000F079F80F4A0021782066
:1005080000F074F801230D4A12216D2000F058F80C
:100518000B4A0221732000F069F80A4A102166206C
:1005280000F064F800F0D2F8FCE7C0468415000833
:100538005704000861040008350400084D04000849
:10054800390400088D0400080120704770B51400B4
:10055800A31A984201DC00201FE04D780B782E008A
:10056800303EF6B2092E0CD826701D00303DEEB292
:10057800092E15D823782D011D4325700134023129
:10058800E6E72E00413E052E02D8373D2570ECE700
:100598002E00613E052E01D9012070BD573DF5E7BB
:1005A8001D00413D052D05D8373B25781B012B4300
:1005B8002370E3E71D00613D052DEDD8573BF4E7B7
:1005C800F0B5094E0700356801200F2D0ADCBF2958
:1005D80008D82C012D18002034192771A160E26079
:1005E80023743560F0BDC0463002002010B50023EA
:1005F800FFF7E6FF10BD000010B5084A002176207D
:10060800FFF7F4FF064A00217720FFF7EFFF054ABE
:1006180000217920FFF7EAFF10BDC0465105000808
:10062800890600086D060008F7B5150001912C0031
:1006380000F062F90F27019A631B9A4203DC0A2033
:1006480000F05AF9F7BD2378054E1B09F05C00F05D
:1006580053F9237801343B40F05C00F04DF9EAE7A8
:100668009415000807B56B46DA1D044B72201B6809
:1006780001211370FFF7D8FF00200EBD30020020C3
:10068800032200239446F0B50F4D8DB02C68E6B2D6
:10069800B34209DB614661436A46C9B27220FFF77B
:1006A800C3FF00200DB0F0BD624669465A431801E9
:1006B8002818077901338F54017A007C6A445170F5
:1006C8009070DBB2E4E7C04630020020F0B52C4C55
:1006D8000027A54400F0F8F82A4C220002CA8F42ED
:1006E80004DB07D193239B009D44F0BD3D01AD5C25
:1006F800854239D101223F01E619337C134213D0D8
:100708006A460023137200F0DFF832AD287000F05B
:10071800DBF802AA687029000120FFF717FF0028FC
:10072800E0D16B461B7AB3600025E3199B685B0038
:10073800AB421BD800F0C8F80A2801D00D28D1D147
:10074800E419A56802AA32A92800FFF7FFFE0028CD
:10075800C8D1E9B2E36802A8984701AA107001213C
:100768007A20FFF761FFBDE70137B8E700F0ACF882
:100778000A28B7D00D28B5D032ABE8540135D4E7F4
:10078800B4FDFFFF30020020F0B5902700240125BA
:100798000326042397B0FF0505A93800059306959D
:1007A8000794089600F02AFB102305A93800059342
:1007B80006950794089600F021FB05230AA80B93D9
:1007C8000A960D94139400F0ADF80723210001A8B0
:1007D800019302950394049400F086FA17B0F0BDD3
:1007E800802170B51B4C8902626988B00A43626136
:1007F800636990200B400193019BC023DB000393A6
:1008080001250223032603A9C0050493059507952E
:10081800069600F0F3FA8021A269C9010A43A26191
:10082800A3690D480B400293029B236BB3431D43FE
:100838000A4B2563036096231B02436000238360F1
:10084800C360036183610C33436100F039FC08B075
:1008580070BDC0460010024000040020003801406E
:100868008020104A70B55169800201435161536973
:1008780086B0034000939024009B01238025002626
:10088800E405029301A9023320000493019503961D
:1008980000F0B4FA32002900200000F05FFB06B037
:1008A80070BDC04600100240902010B50122802182
:1008B800C00500F053FB10BD902010B50022802128
:1008C800C00500F04BFB10BD37B508256B46DC1D95
:1008D800012232232100064800F024FC002801D11F
:1008E80020783EBD034A136A2B431362EEE7C046E5
:1008F800000400200038014007B56B46D91D087078
:10090800024B0122024800F083FC07BD8813000057
:1009180000040020024B1868421C1A607047C04649
:1009280034030020F0B5036885B00500DB072FD439
:100938002B689B0700D581E02B681B0700D5BCE01E
:100948002B685B0700D5DFE02B68DB061AD56A69E0
:10095800B54C0423012A00D04BE1616B02260B43FE
:100968006363636B1A436263FFF7D4FF0700636B2B
:10097800334200D136E1F821626BAB698A43DB0070
:1009880013436363296A002900D059E1002013E06A
:100998000C21A54C62680A40042A06D063680B4003
:1009A800082B0BD16368DB0308D523689B03BFD5ED
:1009B8006B68002BBCD1012005B0F0BD6B68012B22
:1009C80013D1802322685B0213432360FFF7A2FF41
:1009D80080260700B60223683342A9D1FFF79AFFA1
:1009E800C01B6428F7D90320E6E7002B16D123683B
:1009F8008E4A80261340236023688D4AB60213402E
:100A08002360FFF787FF07002368334200D18FE791
:100A1800FFF780FFC01B6428F6D9E4E7052B05D152
:100A280080232268DB0213432360CAE723687F4AD6
:100A38001340236023687E4A1340C6E70C227A4C91
:100A48006368134206D063681340082B10D16368AB
:100A5800DB030DD423689B0702D5EB68012BAAD1D1
:100A6800F82122682B698A43DB001343236063E77C
:100A7800EA680123002A0FD0226802261343236064
:100A8800FFF748FF070023683342E9D1FFF742FF29
:100A9800C01B0228F7D9A6E7226802269A432260DB
:100AA800FFF738FF07002368334200D144E7FFF718
:100AB80031FFC01B0228F6D995E7EA6901235A4C91
:100AC800002A10D0626A022613436362FFF722FFEE
:100AD8000700636A334200D032E7FFF71BFFC01BF1
:100AE8000228F6D97FE7626A02269A436262FFF714
:100AF80011FF0700636A334200D121E7FFF70AFFBD
:100B0800C01B0228F6D96EE780220021464C520508
:100B1800E3690091134208D1E3691343E361E36990
:100B280013400393039B012300938027414E7F00CA
:100B380033683B4206D0AB68012B13D1226A1343BA
:100B4800236230E033683B433360FFF7E3FE0190F4
:100B580033683B42EFD1FFF7DDFE019BC01A6428E2
:100B6800F6D940E70122002B14D1236A02279343C8
:100B78002362236A033293432362FFF7CBFE060006
:100B8800236A3B4225D0FFF7C5FE2B4B801B9842BA
:100B9800F6D928E7052B0BD1216A013B0B432362C9
:100BA800236A1A432262FFF7B5FE022706000DE00A
:100BB800236A934304222362236A9343C0E7FFF71F
:100BC800A9FE1D4B801B984200D90CE7236A3B42C3
:100BD800F5D0009B012B00D0B6E6E369174A134015
:100BE800E361B1E6FFF796FEC01B022800D8BEE617
:100BF800F9E6053203D1626B9A436263BBE6626B26
:100C08000226134301226363636B93436363FFF715
:100C180081FE0700636B334200D1B3E6FFF77AFE2B
:100C2800C01B0228F6D9DEE600100240FFFFFEFFD7
:100C3800FFFFFBFF0070004088130000FFFFFFEF7D
:100C48000C22264C012063681340082B00D1B3E620
:100C58002368234A1340236002292FD1FFF75AFE45
:100C680080260700B6042368334221D10F22E36AA5
:100C78009343EA6A1343E362696AAB6A62680B43A7
:100C8800184980250A4013436360802322685B0467
:100C980013432360FFF73EFE0600AD0423682B4292
:100CA80000D073E6FFF736FE801B0228F6D99AE6D5
:100CB800FFF730FEC01B0228D5D994E6FFF72AFEBD
:100CC80080250600AD0423682B4200D15EE6FFF7BD
:100CD80021FE801B0228F6D985E6C0460010024096
:100CE800FFFFFFFEFFFFC2FFF7B501223E4C0600E3
:100CF80023680F0013408B4212D33268930719D42C
:100D0800D3071FD4012322681A4097425DD3336862
:100D18005B0761D4E122354BD2031A60002008E05A
:100D2800236893430B432360236813409942E4D01C
:100D38000120FEBDF0202E494B688343B068034371
:100D48004B60DDE72A4D72682B68012A1AD19B0394
:100D5800EED503216B688B4313436B60FFF7DAFD15
:100D680073680190012B15D10C226B681340042B7A
:100D7800C8D0FFF7CFFD019BC01A1E4B9842F3D98C
:100D88000320D6E7022A02D19B01E2D4D0E79B07D1
:100D9800DFD4CDE7022B12D00C226B681342B1D0FE
:100DA800FFF7B8FD019BC01A124B9842F4D9E7E748
:100DB800FFF7B0FD019BC01A0E4B9842E0D80C22F9
:100DC8006B681340082BF3D19CE722689A43226092
:100DD80022681A42ACD19AE7054A074953680B4082
:100DE800F1680B43536095E700200240040000209F
:100DF8000010024088130000FFF8FFFFF0B50B68F1
:100E080087B0029300230191029ADA4001D107B01A
:100E1800F0BD01229A4003920399029A0A40009277
:100E280000D18CE0019A1021526816008E43022EE0
:100E38000ED107251D40AD000139A940DC08A400EA
:100E48000419276A8F4301990969A9400F4327624A
:100E580003245F00BC40E4430568013E2540AC46DE
:100E680003251540BD4061460D430560012E0FD88E
:100E780001998668CD682640BD403543856046683F
:100E8800039915098E4301210D409D403543456066
:100E9800C56801992C408D688021BD4049052C43C7
:100EA800C4600A424BD00121264C0326A5691E4086
:100EB8000D43A561A4699D080C400594059C0F2469
:100EC8002149AD00B6006D18B4409021AF68C9053E
:100ED800A743002488420CD01C490134884208D01A
:100EE8001B490134884204D01A490334884200D18E
:100EF800023CB44000993C430E00AC60164CCD4314
:100F080027683E43D10301D43E002E40266067681F
:100F1800009E3E43910301D43E002E406660A768C0
:100F2800009E3E43D10201D43E002E40A660E668F2
:100F3800009F3743920201D42E403700E760013307
:100F480062E7C0460010024000000140000400486B
:100F580000080048000C004800040140002A01D0A5
:100F6800816170478162FCE7F8B504000E00150046
:100F78001F002268D36933409B1B59424B41AB4247
:100F880001D0002018E0069B0133F3D0069B002B0C
:100F980013D123680C491A6803200A401A609A681A
:100FA800A331FF318A439A602200202369321370EB
:100FB8005370002368342370F8BDFFF7ABFC069B21
:100FC800C01B8342D5D2E4E75FFEFFFF030070B584
:100FD8009A681D6904682A435D69C1692A432068C3
:100FE800304D0A4328400243226062682E481D6A39
:100FF8000240D868024362609A69A0682A432B4D70
:10100800284002430320A260294A126B0240294863
:10101800805C80221202914225D1082820D8FFF74F
:1010280009F9151F051F151F1F1F1A005968224BA4
:101038004808C018FFF708F983B2002019000F22EA
:101048001B0791435B0F0B43E36070BD5968E123B5
:1010580048081B04EDE75968802348085B02E8E765
:1010680001200023EAE708281AD8FFF7E3F80F1948
:1010780005190F19191914005968104B4808C01898
:10108800FFF7E2F880B2E0600020DEE75968E1236C
:101098004808DB03F3E75968802348081B02EEE79A
:1010A8000120D2E7F369FFFFFFCFFFFFFFF4FFFF47
:1010B80000100240A41500080048E8010024F400CC
:1010C80070B5041E01D1012070BD050069352B786B
:1010D800DBB2002B02D102006832137024230126F0
:1010E80022682B7013682000B3431360FFF76EFF6C
:1010F800B042E8D023680A495A6800200A4008210B
:101108005A609A688A439A601A68164322001E60D9
:101118002023E0666A3268342B7013702070D3E79E
:10112800FFF7FFFFF0B51F0003006A3316001A78B7
:10113800040085B00D000220202A39D10138002989
:1011480036D0002E34D08022A1685201914204D1B9
:101158002269002A01D105422AD122006832117879
:101168000220012924D0012111700022E2662232D6
:101178001A70FFF7CFFB23008021A26858331E8026
:101188005E800390490104338A4215D12269002AFE
:1011980010D11E4A1A801E8822005A32108880B246
:1011A800002810D1230020226A3368341A70207076
:1011B80005B0F0BDFF22EDE7002AECD12269002A34
:1011C800F8D07F22E6E713882021013B9BB21380E9
:1011D80020000097039B0022FFF7C6FE002813D1CA
:1011E800A2682368110080225201914207D1226926
:1011F800002A04D19B8C33402B800235CCE79B8C92
:1012080033402B700135C7E70320D1E7FF01000009
:10121800F0B5070085B0039369373B7804000D00EB
:1012280016000220202B46D10138002943D0002A7D
:1012380041D08023A2685B019A4204D12369002B24
:1012480001D1014237D1230068331A780220012ADC
:1012580031D001221A700023E36621333B70FFF777
:1012680059FB230050331E805E8080260290760151
:10127800210052310A8892B2002A0DD1039B4021E5
:1012880000932000029BFFF76FFE002812D1202355
:1012980068343B7020700EE00B880022013B9BB243
:1012A8000B80039B802100932000029BFFF75CFECC
:1012B800002802D0032005B0F0BDA3682268B3421D
:1012C80008D12369002B05D12B880235DB05DB0DFE
:1012D8001385CDE72B7801351385C9E7224BF7B580
:1012E80004CB10001900103014780C7054784C702E
:1012F80094788C70D4780432CC7004318242F3D163
:1013080004211A4801AA1E0000240C36375DA75490
:101318000134042CFAD1013C21420FD1957816787A
:10132800455D865D54785570114DD778D6708E0816
:10133800045DAE5DC75D7440977014701C781678B4
:10134800013174401C7456785C7874405C749678EB
:101358009C7874409C74D678DC7804337440DC73D1
:101368002C29D0D1F7BDC046380300200800002042
:1013780008010020F7B500220A4B0B4C5F6B231DB8
:1013880000010193019B811859180023BE18F55CD0
:10139800CC5C6540F5540133042BF8D10432102A93
:1013A800F0D1F7BDB803002038030020084B30B552
:1013B8005B6B084C181D19001A0010311578655D13
:1013C800157004328A42F9D101338342F3D130BD1A
:1013D800B8030020080000200D4B5B6B59795A7840
:1013E8005970597A5971597B5A735972997A9A78FE
:1013F8009970997B9A729A799971D97B9A73DA78EC
:10140800D970D97AD973D979DA71D9727047C04647
:10141800B80300201B23C209534340005840C0B200
:1014280070470000F0B5002087B0FFF7A3FF012543
:10143800FFF7BCFFFFF7D0FF224B5C6B2300103394
:1014480005932378667801931800A3787040029377
:10145800E3780393039A029B53401F000493474089
:10146800FFF7D8FF019B58407840207002987040E1
:10147800FFF7D0FF46407E4066700498FFF7CAFF2A
:10148800029B58407840A070039B01985840FFF792
:10149800C1FF039B58404740059BE77004349C42BA
:1014A800CFD128000135EDB2FFF764FF0A2DBFD177
:1014B800FFF77CFFFFF790FF2800FFF75BFF07B0FF
:1014C800F0BDC046B80300200023CA5CC2540133F3
:1014D800102BFAD17047000010B5024B1860FFF7C7
:1014E800FDFE10BD38030020010010B5034841631C
:1014F8003830FFF7E9FFFFF795FF10BDB80300206C
:10150800704710B5FFF7E8FF10BD10B5FFF7ECFF07
:1015180010BD704770477047002103E00B4B5B58C4
:10152800435004310A480B4B42189A42F6D30A4AF0
:1015380002E0002313600432084B9A42F9D300E01A
:1015480000BFFEF70DFFFEF7BBFFFEE7B015000872
:101558000000002014020020140200207004002063
:10156800FEE70000F8B5C046F8BC08BC9E467047C8
:0C157800F8B5C046F8BC08BC9E467047A1
:101584002B7E151628AED2A6ABF7158809CF4F3C93
:1015940030313233343536373839414243444546A5
:0415A4000004080235
:0415A8000102000834
:0415AC00D50100085D
:1015B0000A00000000127A00637C777BF26B6FC533
:1015C0003001672BFED7AB76CA82C97DFA5947F046
:1015D000ADD4A2AF9CA472C0B7FD9326363FF7CC22
:1015E00034A5E5F171D8311504C723C31896059ABF
:1015F000071280E2EB27B27509832C1A1B6E5AA0E2
:10160000523BD6B329E32F8453D100ED20FCB15BCC
:101610006ACBBE394A4C58CFD0EFAAFB434D338535
:1016200045F9027F503C9FA851A3408F929D38F509
:10163000BCB6DA2110FFF3D2CD0C13EC5F97441740
:10164000C4A77E3D645D197360814FDC222A9088B7
:1016500046EEB814DE5E0BDBE0323A0A4906245C43
:10166000C2D3AC629195E479E7C8376D8DD54EA9A8
:101670006C56F4EA657AAE08BA78252E1CA6B4C674
:10168000E8DD741F4BBD8B8A703EB5664803F60ECD
:10169000613557B986C11D9EE1F8981169D98E94BC
:1016A0009B1E87E9CE5528DF8CA1890DBFE64268D5
:1016B00041992D0FB054BB168D0102040810204033
:1016C000801B3652096AD53036A538BF40A39E81AB
:1016D000F3D7FB7CE339829B2FFF87348E4344C4CE
:1016E000DEE9CB547B9432A6C2233DEE4C950B42EF
:1016F000FAC34E082EA16628D924B2765BA2496DA2
:101700008BD12572F8F66486689816D4A45CCC5DFB
:1017100065B6926C704850FDEDB9DA5E154657A774
:101720008D9D8490D8AB008CBCD30AF7E45805B8E3
:10173000B34506D02C1E8FCA3F0F02C1AFBD0301B7
:10174000138A6B3A9111414F67DCEA97F2CFCEF0E2
:10175000B4E67396AC7422E7AD3585E2F937E81C40
:1017600075DF6E47F11A711D29C5896FB7620EAA20
:1017700018BE1BFC563E4BC6D279209ADBC0FE78C1
:10178000CD5AF41FDDA8338807C731B1121059278D
:1017900080EC5F60517FA919B54A0D2DE57A9F93C2
:1017A000C99CEFA0E03B4DAE2AF5B0C8EBBB3C8333
:1017B000539961172B047EBA77D626E169146355D5
:0417C000210C7D007B
:0400000508001521B9
:00000001FF
