:020000040800F2
:1000000000100020D1300008193100081931000813
:1000100019310008193100081931000800000000EA
:10002000000000000000000000000000193100087E
:1000300019310008000000001931000819310008CA
:1000400000000000000000000000000000000000B0
:1000500000000000000000000000000000000000A0
:100060000000000000000000000000000000000090
:100070000000000000000000000000000000000080
:100080000000000000000000000000000000000070
:100090000000000000000000000000000000000060
:1000A0000000000000000000000000000000000050
:1000B0000000000000000000000000000000000040
:1000C0000000000000000000000000000000000030
:1000D0000000000000000000000000000000000020
:1000E0000000000000000000000000000000000010
:1000F0000000000000000000000000000000000000
:1001000000000000000000000000000000000000EF
:1001100000000000000000000000000000000000DF
:1001200000000000000000000000000000000000CF
:1001300000000000000000000000000000000000BF
:1001400000000000000000000000000000000000AF
:10015000000000000000000000000000000000009F
:10016000000000000000000000000000000000008F
:10017000000000000000000000000000000000007F
:08018000000000000000000077
:100188000448054B10B5834203D0044B002B00D024
:10019800984710BD70010020700100200000000089
:1001A80006480749091A8B10C90FC91810B5491014
:1001B80003D0044B002B00D0984710BD70010020DD
:1001C800700100200000000010B5074C2378002BB8
:1001D80009D1FFF7D5FF054B002B02D0044800E0FA
:1001E80000BF0123237010BD700100200000000033
:1001F8001C310008054B10B5002B03D004490548F5
:1002080000E000BFFFF7CCFF10BDC04600000000B3
:10021800740100201C31000802B4714649084900E5
:10022800095C49008E4402BC7047C046002243085E
:100238008B4274D303098B425FD3030A8B4244D3A6
:10024800030B8B4228D3030C8B420DD3FF220902E8
:1002580012BA030C8B4202D31212090265D0030BA7
:100268008B4219D300E0090AC30B8B4201D3CB039D
:10027800C01A5241830B8B4201D38B03C01A5241DF
:10028800430B8B4201D34B03C01A5241030B8B42E1
:1002980001D30B03C01A5241C30A8B4201D3CB02CC
:1002A800C01A5241830A8B4201D38B02C01A5241B1
:1002B800430A8B4201D34B02C01A5241030A8B42B4
:1002C80001D30B02C01A5241CDD2C3098B4201D3CC
:1002D800CB01C01A524183098B4201D38B01C01A4A
:1002E800524143098B4201D34B01C01A52410309C1
:1002F8008B4201D30B01C01A5241C3088B4201D370
:10030800CB00C01A524183088B4201D38B00C01A1C
:10031800524143088B4201D34B00C01A5241411A43
:1003280000D20146524110467047FFE701B5002050
:1003380000F006F802BDC0460029F7D076E77047FE
:100348007047C04670B50C4D0C4E761BB61005D0E4
:10035800002408CD01349847A642FAD102F0DAFE0B
:10036800074D084E761BB61005D0002408CD013481
:100378009847A642FAD170BD743300087433000858
:100388007433000878330008F0B5C64600B58842D3
:100398000CD98B18984209D2531E002A03D0CA5C84
:1003A800C254013BFBD204BC9046F0BD0F2A0CD8C6
:1003B8000500561E002AF6D0002300E02300CA5C80
:1003C8005C1CEA549E42F9D1EDE70B000326034377
:1003D8001E400C000300002E2ED11500103D2D09E3
:1003E800AC462D01A846804400E02B001D0027687C
:1003F80010351F6067685F60A7689F60E768103402
:10040800DF604345F1D165460F230C2401352D01EA
:10041800491913404519144211D08C59AC5104366E
:100428009C1B032CF9D80324043B9B0801339B0035
:10043800ED18C9182240BCE7561E0500BCE71A0093
:10044800B7E7C046F0B5050083074AD0541E002A16
:1004580044D0CEB20300032202E00135013C3DD373
:1004680001332E701342F8D1032C2FD9FF220A40F2
:10047800150215432A0415430F2C35D92700103FC0
:100488003F093E01B4461E001A0010366644156046
:1004980055609560D5601032B242F8D10F260C2213
:1004A80001373F012640DB193700224217D03E1F93
:1004B800B608B400A4461A001C1D644420C2A24217
:1004C800FCD103240136B6009B193C40002C05D012
:1004D800C9B21C19197001339C42FBD1F0BD34001C
:1004E800F4E714000300BFE72700E0E7114B70B5FD
:1004F8001C680500A06B002803D000230561436138
:1005080070BD183000F0AAF8A06300280CD00A4B80
:1005180001220360094B4360094B83600B238381ED
:10052800002302614361E8E7064B002242210648A6
:1005380000F050F80C0100200E33CDAB34126DE6FC
:10054800ECDE0500AC320008C4320008184B70B568
:100558001D68AC6B002C0ED020696169154A164BDA
:1005680001F0A2FD0122002312184B415800400857
:100578002261636170BD182000F070F8041EA86342
:100588000FD00E4B012203600D4B43600D4B83606F
:100598000B23838100230261436107480A4A064B03
:1005A800E6E70A4B00224E21094800F013F8C0463E
:1005B8000C0100202D7F954C2DF451580E33CDABF6
:1005C80034126DE6ECDE05002E7F954CAC32000847
:1005D800C432000830B51C000A4B05001B6885B002
:1005E800D868002A0AD0084B0292019300912B0088
:1005F8002200064900F020F800F0BCFD044B1A0068
:10060800F2E7C0460C010020F83200080833000861
:1006180004330008130010B50022FFF7DBFFC046C3
:100628000CB400B583B004AB04CB019300F01EF901
:1006380003B008BC02B018470EB400B582B003ABD3
:100648000100054804CB0068019300F00FF902B0DF
:1006580008BC03B01847C0460C01002010B5034B76
:100668000100186800F064F810BDC0460C010020B5
:1006780010B5034B0100186800F004F810BDC0461F
:100688000C01002070B50500002915D00C1F236847
:10069800002B27DB280001F04DFA244B1A68002AAA
:1006A80005D0A2420CD921686018824224D0626029
:1006B80028001C6001F040FA70BDA34203D81A005C
:1006C8005368002BF9D111685018A0421BD027D8C5
:1006D80021686018834207D063605460280001F0E5
:1006E8002BFAE9E7E418D5E718685B6884466144A3
:1006F800216063605460F1E7106852688446614481
:1007080021606260D4E7206809185018116083429C
:10071800E4D118685B688446614411605360DDE782
:100728000C2328002B6001F007FAC5E7940200208B
:10073800F8B50323CD1C9D43083506000C2D2AD29D
:100748000C25A94229D8300001F0F4F92A4F3A685B
:10075800002A0AD013685B1B04D441E023685B1BA2
:100768001FD522005468002CF8D17B68002B3DD09F
:100778002900300000F0F0FB431C2AD00323C41CDE
:100788009C43A04205D0211A300000F0E5FB431C31
:100798001FD0256010E0002DD3DA0C230020336031
:1007A800F8BD0B2B05D86368A2421DD0536003E047
:1007B80014002360E4182560300001F0BDF9200022
:1007C80007220B30231D9043C21AE9D01B1AA350ED
:1007D800E6E70C233000336001F0AEF90020DFE7D4
:1007E8000B2BE5D8140053683B60E5E70021300087
:1007F80000F0B2FB7860BBE794020020936810B564
:10080800013B9360002B04DA9469A34207DB0A29B1
:1008180005D01368581C10600800197010BD00F04E
:10082800ADFBFBE7F8B506000F00002B0DD0140058
:10083800D51802E00134AC4207D021783A003000E4
:10084800FFF7DCFF431CF5D1F8BD0020FCE7C046EC
:10085800936810B51400002B02D10020536010BD1E
:1008680000F08CFE0023A3606360F8E7F0B54E4605
:10087800DE4657464546E0B5A1B00490039191463F
:100888001C00002804D083690593002B00D1BEE02A
:10089800AD4B039A9A4200D1C0E0AC4B039A9A42FE
:1008A80000D1CDE0AA4B039A9A4200D147E1039ABE
:1008B80093891B0700D4B9E013690593002B00D175
:1008C800B4E0002308AD6B6120336B761033AB7650
:1008D8002F3B98464B461B7807949E4F002B00D120
:1008E80089E0252B00D125E14E4603E0252B00D1D8
:1008F800AAE026007378741C002BF7D14B46E31A44
:100908009A4678D053464A4603990498FFF78AFFD7
:10091800431C70D06B6953446B617378002B6AD0A9
:100928000122002352426A60443201342B60EB609A
:10093800AB60AB54AB6506E04346C01B8340340054
:100948002A6813432B6021780522380001F05EF8ED
:10095800661C0028F0D12B68B246DA0602D543227D
:100968002021A9541A0702D543222B21A954217802
:100978002A2900D06EE0079A111D12680791002AF3
:1009880000DABAE0EA606178A61C2E2900D17AE084
:10099800714B03221800994601F038F8002800D15D
:1009A8008FE04B46C01A402383402A6831781343AE
:1009B8002B600622731C69489946297601F026F8AF
:1009C800002800D188E0664B002B00D18EE007ABF1
:1009D8000093039A634B2900049800E000BF834604
:1009E8005B46013307D06B695B446B614B461B78F0
:1009F800002B00D075E7039B9B895B061DD46869B3
:100A080021B03CBC90469946A246AB46F0BD00F0EA
:100A18008DFD4D4B039A9A4200D03EE7049B5B68DC
:100A28000393039A93891B0700D545E70399049814
:100A380000F01AFB002800D143E701204042DFE71D
:100A4800049B9B68039332E74B46E31A9A4600D10E
:100A580066E757E70A00303AA246092A95D8EB68B4
:100A6800180001E03400013683001B1831785B0060
:100A780098180A00303A092AF4D9B246E860A61C48
:100A88002E2900D084E7534659782A293BD1079B61
:100A98001A1D079252469178D61C022294461B686A
:100AA800E2446B60002B00DB72E701235B426B6062
:100AB800294B03221800994600F0A8FF002800D00F
:100AC8006FE7B1465646317806222448297600F069
:100AD8009DFF002800D076E707AB0093039A214BCF
:100AE8002900049800F0E4F8834679E70722079B79
:100AF800073393430833079375E75242EA600222AB
:100B080013432B603FE70A000023303A6B6018005C
:100B1800092A01D910E01E0083001B1871785B00B8
:100B280098180A00303A731C092AF4D99A460236F2
:100B380068602DE74C46F3E6B246013628E7049B89
:100B4800DB680393B3E6C0468C3200086C320008B9
:100B58004C3200083833000840330008443300089A
:100B6800000000002D08000810B504001300034A17
:100B780010680A002100FFF779FE10BD0C01002063
:100B8800F0B54F464646D646C0B51F00089B91466D
:100B980098468A680B6906000C00934200DA130035
:100BA8004A4613604322A25C002A02D04A46013317
:100BB800136023689A065AD54B461B6806209A1C70
:100BC8004B461A6023681900184208D1E1680025CD
:100BD8008A1A19218A461900A244002A3FDC4323B5
:100BE800E35C5A1E93418A060AD53020E118433146
:100BF800087045215A1C615CA218433202331170F7
:100C08002200390043323000C047431C19D0062364
:100C18002068A26821690340042B30D08A423ADD5B
:100C280000239946521A91441A34002502E00135EE
:100C38004D4530DA0123220039003000C047431CFB
:100C4800F5D1012040421CBC90469946A246F0BD11
:100C58004B46E2681B680135D31AAB4220DD0123FD
:100C6800524639003000C047431CF1D1E9E706225B
:100C78001A4212D04323E35C5A1E9341C0E74B4605
:100C8800E0681B68C31AD843C017184081468A42D7
:100C9800C8DC002BC8DC0020D5E74A46126895E777
:100CA80043232168E35C5A1E93418A069DD4A7E733
:100CB800F0B557469A4643239C464E464546DE467F
:100CC8008C446346E0B587B003930B7E914680461B
:100CD8000C00109A6E2B00D1D8E000D871E0732B6D
:100CE80000D11AE100D881E0752B00D1FFE0782B04
:100CF80000D00BE10B6878204521605494498B465D
:100D0800116840C91160180603D4580601D5360485
:100D1800360CDA0702D52022134323601027002E51
:100D280000D1C2E043230022E2546368A360002B91
:100D380000DAC5E00422216891432160002E00D02A
:100D480083E0002B00D0BDE0039D082F00D18CE08C
:100D5800039B5B1B2361534605AA009321004B4666
:100D68004046FFF70DFF431C22D023692A0049465D
:100D78004046D047431C1BD022680598E368920779
:100D880000D47FE01A1A002A00DC7BE02600002548
:100D9800193606E0E368059801351A1AAA4200DCFC
:100DA80070E00123320049464046D047431CF1D148
:100DB8000120404207B03CBC90469946A246AB464B
:100DC800F0BD632B00D184E01FD8002B69D0582BCD
:100DD80000D09BE0452163545E4923688B46116827
:100DE80040C91160180600D48FE792E76F2B7ED0B8
:100DF800702B00D08AE02023096878200B43452116
:100E08002360605452498B467AE7642B01D0692BE2
:100E18007CD111682368081D10601D064AD50A6830
:100E28001600002A03DB4B4B0A279B467DE743222B
:100E38002D21A15462687642A260002A02DB0422B6
:100E480093432360434B0A279B46039D00E006001B
:100E580039003000FFF770FA5B465B5C013D2B7090
:100E6800BE42F4D2082F00D072E72368DB0700D413
:100E78006EE763682269934200DD69E73023013D2C
:100E88002B7065E7984295DA180093E713680968AC
:100E98001D1D606915601B680E0601D449064BD4F8
:100EA80018600023039D236155E7202322689A4395
:100EB800226037E75D06B2D500228E5E3200B0E7C9
:100EC800002EC2D15B4625001A7842234235E254EF
:100ED8003BE713682500191D11601A684223E25484
:100EE800413B4235236143230022E25433E7116832
:100EF80020680D1D1560060601D440061ED40E6834
:100F08006F2B1DD0134B0A279B460BE74222250067
:100F1800A354012342352361E5E71368191D1160C5
:100F28001D6862680021280000F070FD00280BD0C1
:100F3800401B60602061D6E71880B2E70E88DFE7C3
:100F4800044B08279B46EDE660682061CBE7C04666
:100F5800603300084C330008002370B5064C0500C8
:100F68000800236001F000F9431C00D070BD23681D
:100F7800002BFBD02B60F9E710030020F8B5050023
:100F88000E001400002802D08369002B29D02D4BB5
:100F98009C422BD02C4B9C4246D02C4B9C424ED092
:100FA800A369A360A3891B0726D52369002B23D037
:100FB800FF22F7B2616916402268D31A99422ADDE6
:100FC8000133A1680139A160511C21601770626961
:100FD8009A422BD0A389DB0701D50A2E26D03000F0
:100FE800F8BD00F0A3FA174B9C42D3D16C68A369F3
:100FF800A360A3891B07D8D42100280000F034F887
:10100800002819D1FF222369F7B2616916402268C6
:10101800D31A9942D4DC2100280000F04DF90028A9
:101028000AD122680123CCE7AC68B9E7210028007F
:1010380000F042F90028D2D001267642CFE7EC68CA
:10104800AEE7C0468C3200086C3200084C3200080B
:1010580010B5044B0A001B6801001800FFF78EFF4B
:1010680010BDC0460C0100203E4B70B51D6806003F
:101078000C00002D02D0AB69002B1BD03A4B9C42D0
:101088001ED03A4B9C424CD0394B9C4260D00C232A
:10109800E25E93B2190719D52169002921D0DA0730
:1010A8002ED50023A360636900205B42A361002959
:1010B8002ED070BD280000F039FA2B4B9C42E0D1AD
:1010C8006C680C23E25E93B21907E5D4D90641D5C2
:1010D8005B0728D4216908231343A3819BB2002905
:1010E800DDD1A0228020920080001A408242D6D012
:1010F8002100300000F042FCA3892169DA07D0D42E
:1011080000229B0700D46269A26000200029D0D188
:101118000C22A35E1A06CCD540221343A3810138C2
:10112800C7E7AC68B3E7616B00290AD023004433F2
:10113800994204D03000FFF7A5FA0C23E25E0023A1
:10114800636324239A430023216963602160C2E713
:10115800EC689CE709233360402301201A43A281ED
:101168004042A6E70C0100208C3200086C320008CF
:101178004C32000810B5062000F096FD012001F061
:1011880009F8C046F0B5C64600B58B8980460C0004
:101198001A0745D44A68002A63DDE56A002D3BD06A
:1011A80042464146166800220A60216ADA045CD485
:1011B800012300224046A847431C61D0A389E56A61
:1011C800216A5B0706D56368C01A636B002B01D0E0
:1011D800236CC01A002302004046A847431C46D18E
:1011E80043461B680C21625E002B56D01D2B01D094
:1011F800162B5DD100236360236923604346616B2E
:101208001E60002908D023004433994202D040468A
:10121800FFF738FA00236363002004BC9046F0BD52
:101228000E69002EF8D00A680E60951B00229B07F5
:1012380000D14A69A260002D04DCEDE736182D1AAA
:10124800002DE9DD2B003200216A4046A76AB84725
:101258000028F3DC40220120A38940421343A381E4
:10126800DBE70A6C002A98DCD6E7606DA9E7002363
:10127800636023692360A389DB04BFD56065BDE78C
:1012880043461B68002B99D01D2B0DD0162B0BD075
:101298004022A3891343A381BFE7636023692360C6
:1012A800D304ABD56065A9E7434600201E60B4E7C8
:1012B80040231A43A281B0E70B6970B505000C0002
:1012C800002B16D0002802D08369002B15D00E4BB6
:1012D8009C4210D00D4B9C4212D00D4B9C4211D019
:1012E8000C22A35E002B04D021002800FFF74AFF40
:1012F80000E0002070BD6C68F2E700F017F9E6E73F
:10130800AC68EDE7EC68EBE78C3200086C3200085B
:101318004C32000810B5011E04D0054B1868FFF7C1
:10132800CBFF10BD034B0449186800F0D9FAF8E761
:101338000C01002048320008C11200080020704744
:1013480010B5024900F0CCFA10BDC046C112000821
:101358000020704770B568244A1E54430E002100CF
:101368007431FFF7E5F9051E09D000232200036058
:1013780046600C30A86068320021FFF763F8280047
:1013880070BDC0461E4B70B51D680600AB69002BCA
:1013980027D048356B68AC68013B03D51CE068343E
:1013A800013B19D30C21625E002AF8D100252000E8
:1013B800144B656625606560A560E360256165611D
:1013C800A561082200215C30FFF73CF86563A5633E
:1013D800A564E564200070BD2C68002C05D02500AC
:1013E800D8E7280000F010F8D3E704213000FFF711
:1013F800B1FF041E2860F2D10C233360EAE7C0462F
:10140800483200080100FFFFF0B5D6464F46464671
:10141800384BC0B5836200238364C3640365364BCD
:1014280082B01B6805000193984260D02800FFF73E
:10143800A9FF68602800FFF7A5FFA8602800FFF74C
:10144800A1FF6E680024E8600423300074663460ED
:101458007460B460F36034617461B461082200217F
:101468005C30FEF7EFFF254B254F9A467362254BFC
:1014780037639946B362244B3662F362AE68984686
:101488003000224B746634607460B460F360346179
:101498007461B461082200215C30FEF7D3FF534623
:1014A80073624B46B36243463763F3623662EE6853
:1014B800174B3000F360746634607460B460346154
:1014C8007461B461082200215C30FEF7BBFF53460B
:1014D80073624B46B3624346F36201233662376355
:1014E800AB6102B01CBC90469946A246F0BD0123F0
:1014F80083619BE749130008483200083D1D000836
:10150800D51D0008691D0008A91D00080900010073
:101518001200020010B5034B0349186800F0E0F907
:1015280010BDC04648320008C1120008836910B5D2
:10153800002B01D1FFF768FF10BDC0467047C046B9
:101548007047C0467047C0467047C04610B5034B49
:101558000349186800F0A2F910BDC0460C0100202C
:101568004513000810B5034B0349186800F096F9B5
:1015780010BDC0460C01002059130008F0B54546BF
:10158800DE4657464E46E0B5936883B000900C009F
:101598009046002B6DD08B891A0700D471E00A6938
:1015A800002A00D16DE0424616689A0700D475E01B
:1015B800A36A00279A46B54B00259946216A002D53
:1015C80016D02B004D4500D9B04B3A000098D047B3
:1015D800002800DCD5E043469B683F182D1A181AEE
:1015E8004346986045D0A36A216A9A46002DE8D1FF
:1015F800376875680836E2E74B461B689A464B46DB
:101608005F6808239C46E144002FF5D03A000A2180
:10161800504600F0FBF9002800D1CEE053460130D7
:10162800C61A3300BB469F4200D99B4620682269F0
:101638006369904204D9A2689D18AB4500DD92E029
:101648005B4500DDF9E0A56A5246216A0098A84783
:10165800051E00DC95E0761B0120002E00D1E4E099
:1016680043469B68AA447F1B5D1B43469D6000D090
:1016780095E0002003B03CBC90469946A246AB4694
:10168800F0BD21000098FFF7EFFC002800D0F9E03A
:101698004246A38916689A0700D589E7DA0778D4FD
:1016A800002291468022920000279346A568206870
:1016B800002F53D05A46134200D181E0AA46BD42BA
:1016C80000D9AFE09022D20013422ED02169451AEA
:1016D800AC466069019542001218D00F8218781C38
:1016E800521060449246904201D9824602005B053E
:1016F80000D4AFE011000098FFF71AF8051E00D1DA
:10170800BAE0019A216900F0C1F9A389604A13403F
:1017180080221343A3815246019B2561E818BA46EB
:101728003D00D31A20606261A36052464946FEF725
:101738002BFEA3685D1BA5603D000027236853446A
:10174800236043469B68A9445D1B43469D6000D1C6
:101758008FE7A5682068A389002FABD13268776826
:1017680091460836A4E751462A00FEF70DFE236885
:1017780021005B1923600098FFF79EFD002800D127
:1017880069E70C22A35E402201201343A381404253
:1017980070E70023B14600209A4600271E00002F5C
:1017A80000D129E7002800D03BE73A000A2150463B
:1017B80000F02CF9002800D030E77B1C1E0031E730
:1017C8002369834217D363699A46BB4213D8314BC6
:1017D80038009F4200D93048514600F07BFB534601
:1017E8004A464343216A0098A56AA8470028C8DDED
:1017F80005007F1BA5E7BD4200D93D002A004946E8
:10180800FEF7C2FDA36822685B1B5219A360226021
:10181800002BEED121000098FFF74EFD0028B0D133
:101828007F1B8EE73D00BA467FE721000098FFF74F
:1018380043FD002800D113E7A3E75A465146FEF7B7
:10184800A3FD5A46A3685D469B1AA36023685B44C0
:10185800236000E7009800F071F9051E00D05AE7F0
:10186800009D21692800FEF70DFF8022A38993437C
:10187800743A1BB22A6086E70C23009A13600C2284
:10188800A35E80E701204042F4E6C04600FCFF7FEB
:101898007FFBFFFFFEFFFF7FFFFFFF7FF0B5C64620
:1018A800483000B5884607000026002813D07B681A
:1018B800BC685D1E0CD4A389012B06D90E22A35E39
:1018C800013302D02000C04706436834013DF2D2FC
:1018D8003F68002FEBD1300004BC9046F0BDC046F5
:1018E800F8B54746CE4680B5070048378046894652
:1018F8000026002F14D07B68BC685D1E0DD4A38918
:10190800012B07D90E22A35E013303D021004046E4
:10191800C84706436834013DF1D23F68002FEAD139
:1019280030000CBC90469946F8BDC04670B50C0016
:101938001D000E23C95E96B01600002914DB6A4606
:1019480000F070FA00280FDBF022019B120213400E
:10195800094A944663445A4253412B608023DB0072
:101968003360002016B070BD00232B60A3891B06CE
:10197800F4D540233360F4E700E0FFFF70B58B89AE
:1019880082B006000C009B0707D52300473323606D
:1019980023610123636102B070BD01AB6A46FFF7A2
:1019A800C5FF009905003000FEF7C2FE002810D0E0
:1019B8008022154BB362A38920601343009A1BB29F
:1019C8006261019AA3812061002A0CD12B43A38173
:1019D800E1E70C22A35E9A05DDD403229343022299
:1019E8001343A381D1E70E23E15E300000F02EFA05
:1019F800002802D10C22A35EE8E70322A3899343BF
:101A0800012213431BB2E1E74913000870B5CDB2B8
:101A1800830734D0531E002A1BD00278AA4219D05B
:101A2800032404E0013B14D30278AA4212D0013007
:101A38002042F7D1032B0ED8002B0AD00278AA42F5
:101A480008D0C31802E00278AA4203D001308342CA
:101A5800F9D1002070BDFF220C06240C114021434F
:101A68000C04084E0C430268074962405118914320
:101A78003142E3D1043B0430032BF4D8DCE71300F4
:101A8800D8E7C04680808080FFFEFEFEF0B5C646DF
:101A980000B50F2A43D90B00032603431E400C0050
:101AA8000300002E40D11500103D2D09AC462D0134
:101AB800A846804400E03B00676825685F60E768E7
:101AC8001D60DF601F00A56810379D601034434516
:101AD800F1D165460F230C2401352D014919134016
:101AE8004519144223D08C59AC5104369C1B032C45
:101AF800F9D80324043B9B0801339B002240ED18CE
:101B0800C918561E002A07D0002300E02300CA5C2B
:101B18005C1CEA549E42F9D104BC9046F0BD050015
:101B2800561E002AF0D1F7E7561E0500ECE71A000A
:101B3800F6E7C0467047C0467047C046F8B507008C
:101B48000C00150000291BD0002A15D000F0A4F9BC
:101B58002600A84201D33000F8BD29003800FEF75E
:101B6800E7FD061EF7D021002A00FFF78FFF2100AE
:101B78003800FEF787FDEEE7FEF784FD0026EAE76A
:101B88001100FEF7D5FD0600E5E7C04610B5802137
:101B98000400FEF7CDFD6064002807D00200002392
:101BA800803208C09042FCD1002010BD0120404284
:101BB800FBE7C046426C10B50023002A01D018008C
:101BC80010BDFFF7E3FF0300F9E7C04670B5050055
:101BD8000C0016001F2907D8436C002B09D0A4005D
:101BE8001B1918681E6070BD16230360012040424F
:101BF800F9E7FFF7CBFF002801D16B6CEFE7012075
:101C08004042F0E770B505000C001F2920D8436C4E
:101C1800002B0ED08A009B181A68002A09D0012AC6
:101C280014D0511C0ED000212000196090470020CC
:101C380070BD280000F07AF822000100280000F0AA
:101C480061F8F5E7162303600120F1E70020EFE7CC
:101C58001623036001204042EAE7C04670B505003C
:101C68000C001F291DD8436C002B10D0A2009B1814
:101C78001A68002A09D0511C11D0012A0DD0002160
:101C8800200019609047002070BD0120FCE7FFF795
:101C98007DFF002805D16B6CE8E70320F4E70220FC
:101CA800F2E701204042EFE710B5034B0100186846
:101CB800FFF7A8FF10BDC0460C01002010B5044B6B
:101CC8000A001B6801001800FFF780FF10BDC0461E
:101CD8000C010020054B10B51B6800205A6C002A27
:101CE80000D010BD1800FFF751FFFAE70C010020E3
:101CF80010B5034B01001868FFF7B0FF10BDC046D0
:101D08000C010020002370B5074C050008001100E5
:101D1800236000F011FA431C00D070BD2368002B2B
:101D2800FBD02B60F9E7C0461003002010B500F087
:101D3800F3F910BD70B50C000E25495F00F0B6F838
:101D4800002803DB636D1B18636570BDA389024A15
:101D58001340A381F9E7C046FFEFFFFF002070475B
:101D6800F8B516001F000C228B5E0C0005000E2231
:101D7800895EDA0508D4094A28001340A381320095
:101D88003B0000F029F8F8BD0022022300F070F8AB
:101D98000C22A35E0E22A15EEDE7C046FFEFFFFF17
:101DA80070B50C000E25495F00F062F8431C06D0A0
:101DB8008023A2895B011343A381606570BDA38959
:101DC800014A1340A381F9E7FFEFFFFF10B50E2387
:101DD800C95E00F015F810BD70B5050008001100C7
:101DE8000022064C22601A0000F0CCF9431C00D0F7
:101DF80070BD2368002BFBD02B60F9E7100300208F
:101E0800002370B5064C05000800236000F074F943
:101E1800431C00D070BD2368002BFBD02B60F9E772
:101E280010030020002370B5074C050008001100BE
:101E3800236000F069F9431C00D070BD2368002BB3
:101E4800FBD02B60F9E7C04610030020002370B5D3
:101E5800064C05000800236000F066F9431C00D01A
:101E680070BD2368002BFBD02B60F9E7100300201E
:101E780070B50500080011000022064C22601A0007
:101E880000F062F9431C00D070BD2368002BFBD022
:101E98002B60F9E7100300200B1F1B68181F002B8D
:101EA80000DB70470B58C018FBE7C04670B505004B
:101EB800080011000022064C22601A0000F04CF9BC
:101EC800431C00D070BD2368002BFBD02B60F9E7C2
:101ED8001003002003460B437FD4002243088B42A3
:101EE80074D303098B425FD3030A8B4244D3030B99
:101EF8008B4228D3030C8B420DD3FF22090212BA5E
:101F0800030C8B4202D31212090265D0030B8B42D9
:101F180019D300E0090AC30B8B4201D3CB03C01AC3
:101F28005241830B8B4201D38B03C01A5241430B9E
:101F38008B4201D34B03C01A5241030B8B4201D38E
:101F48000B03C01A5241C30A8B4201D3CB02C01AF9
:101F58005241830A8B4201D38B02C01A5241430A71
:101F68008B4201D34B02C01A5241030A8B4201D360
:101F78000B02C01A5241CDD2C3098B4201D3CB0107
:101F8800C01A524183098B4201D38B01C01A5241B6
:101F980043098B4201D34B01C01A524103098B42BA
:101FA80001D30B01C01A5241C3088B4201D3CB00A5
:101FB800C01A524183088B4201D38B00C01A524188
:101FC80043088B4201D34B00C01A5241411A00D238
:101FD80001465241104670475DE0CA0F00D04942A1
:101FE800031000D34042534000229C4603098B4211
:101FF8002DD3030A8B4212D3FC22890112BA030A99
:102008008B420CD3890192118B4208D3890192111A
:102018008B4204D389013AD0921100E08909C3099F
:102028008B4201D3CB01C01A524183098B4201D3A1
:102038008B01C01A524143098B4201D34B01C01A8C
:10204800524103098B4201D30B01C01A5241C30804
:102058008B4201D3CB00C01A524183088B4201D373
:102068008B00C01A5241D9D243088B4201D34B008E
:10207800C01A5241411A00D20146634652415B10D0
:10208800104601D34042002B00D5494270476346B1
:102098005B1000D3404201B50020FEF751F902BDA4
:1020A8000029F8D016E77047F0B515042D0C0F007D
:1020B80001002E00C64684460004140C000C090CCE
:1020C80046434D43604361434019340C241800B51E
:1020D800A54203D98020400280464144250C6D1852
:1020E800614659437A43300449192404000C2018E6
:1020F800891804BC9046F0BD58220120014B40428B
:102108001A6070471003002058220120014B4042FA
:102118001A6070471003002058220120014B4042EA
:102128001A607047100300205822024B00201A60E2
:102138007047C0461003002058220120014B40423E
:102148001A6070471003002058220120014B4042BA
:102158001A6070471003002058220120014B4042AA
:102168001A60704710030020044A1368002B03D03C
:102178001818106018007047014BF9E79C020020FE
:102188001803002058220120014B40421A60704772
:1021980010030020FEE7C046F0B5012587B004AB68
:1021A8000633019300232C00019A124F137004ABDD
:1021B800DE1D831D039335700378029300231900F5
:1021C800FA5C9446029A944500D129000133062B03
:1021D800F6D1039B494201300C408342ECD13200D6
:1021E800002C00D1019A0121722000F0FDF8200096
:1021F80007B0F0BDFE00002073B56B460F4DDC1D27
:102208000E1AF30F9B195B10C318DBB223708142BF
:1022180012D32378EB5C934202D12078C0B276BD0A
:102228002378EB5C934203D921780139C9B2E7E7F7
:1022380020780130C0B2E3E7FF20F0E70400002077
:1022480010B5040000F018FAF92122780020FFF7F1
:10225800D3FF00F019FA002010BD000070B58025EA
:102268000624FF266D00FEF771F9084B30401A006E
:10227800195CFF325170013C411C2A1AC918C01858
:10228800E4B2FEF781F8002CEDD170BD0400002007
:1022980010B500F061F900F08BF900F0C9F900F011
:1022A8008BF8144905230A001348013BDBB2002BC5
:1022B8001AD19378D0781B021B1850780004C318E1
:1022C80010780006C018FEF711F9FFF7C7FF0621BE
:1022D8000A4A612000F06AF801217320084A00F0D8
:1022E80065F800F0D3F8FCE70C78045D0C70013158
:1022F800DBE7C0460000002034310008A1210008B7
:10230800492200080120704770B50024844201DB8F
:1023180000201FE04D780B782E00303EF6B2092ED3
:102328000CD816551D00303DEEB2092E15D8135D98
:102338002D011D43155501340231E7E72E00413EBA
:10234800052E02D8373D1555ECE72E00613E052EC7
:1023580001D9012070BD573DF5E71D00413D052D10
:1023680005D8373B155D1B012B431355E3E71D00CB
:10237800613D052DEDD8573BF4E70000F0B5094E57
:102388000500346801200F2C0BDCBF2909D806484A
:1023980027013D54C0194160826003730020013455
:1023A8003460F0BD8C0100209001002010B500239E
:1023B800FFF7E4FF10BD000010B50021074A7620A2
:1023C800FFF7F4FF0021064A7720FFF7EFFF00210F
:1023D8007920044AFFF7EAFF10BDC0460D23000824
:1023E8004524000829240008F8B50D0014000F271B
:1023F80000F06AF96519AC4203D10A2000F064F9CB
:10240800F8BD2378054E1B09F05C00F05DF92378D0
:1024180001343B40F05C00F057F9ECE73432000837
:1024280007B56B46DA1D044B72201B680121137037
:10243800FFF7DAFF00200EBD8C0100200322114BAC
:10244800F0B594461C6800230F4D8DB0E6B2B34238
:1024580009DB614661436A467220C9B2FFF7C4FFCF
:1024680000200DB0F0BD624669465A431801475D29
:1024780028188F544168007B6A440133517090706A
:10248800DBB2E4E78C01002090010020F0B52F4C6E
:10249800A54400F001F92E4B2E491A6800239A42F0
:1024A80004DC07D193239B009D44F0BD1C010C5D07
:1024B80084423FD10127274D1C012E19337B3B4213
:1024C80018D000236A46137200F0E6F8C8226B465B
:1024D8009B18187000F0E0F8C9226B469B1818701A
:1024E80002AA380032A9FFF70FFF0028DAD16B469D
:1024F8001B7A736000262B195B685B00B3421BD8FC
:1025080000F0CAF80A2801D00D28CBD12C1965682B
:1025180002AA280032A9FFF7F7FE0028C2D1E9B2C3
:10252800A36802A8984701AA107001217A20FFF732
:102538005BFFB7E70133B2E700F0AEF80A28B1D085
:102548000D28AFD032ABF0540136D4E7B4FDFFFF0D
:102558008C01002090010020F0B59027002401256F
:102568000326042397B0FF05380005A905930695AF
:102578000794089600F02AFB102305A93800059354
:1025880006950794089600F021FB05230AA80B93EB
:102598000A960D94139400F0ADF80723210001A8C2
:1025A800019302950394049400F086FA17B0F0BDE5
:1025B800802170B51B4C8902626988B00A43626148
:1025C800636990200B400193019BC023DB00012528
:1025D80003260393022303A9C005049305950795D1
:1025E800069600F0F3FA8021A269C9010A43A261A4
:1025F800A3690D480B400293029B236BB3431D4311
:102608000A4B2563036096231B0243600023836003
:10261800C360036183610C33436100F041FC08B07F
:1026280070BDC04600100240A002002000380140E2
:102638008020104A70B55169800201435161536985
:1026480086B0034000939024009B01238025002638
:10265800E4052000029301A902330493019503962F
:1026680000F0B4FA32002900200000F061FB06B047
:1026780070BDC04600100240902010B50122802194
:10268800C00500F055FB10BD902010B50022802138
:10269800C00500F04DFB10BD37B508256B46DC1DA5
:1026A800012232232100064800F02CFC002801D129
:1026B80020783EBD034A136A2B431362EEE7C046F7
:1026C800A00200200038014007B56B460122D91D41
:1026D8000870024B024800F08DFC07BD881300000B
:1026E800A0020020024B1868421C1A607047C046BE
:1026F80090020020F0B50368050085B0DB072FD4F1
:102708002B689B0700D581E02B681B0700D5BCE030
:102718002B685B0700D5DFE02B68DB061AD56A69F2
:102728000423B54C012A00D04AE1616B02270B4310
:102738006363636B1A436263FFF7D4FF0600636B3E
:102748003B4200D135E1F821626BAB698A43DB007B
:1027580013436363296A002900D059E1002013E07C
:102768000C21A54C62680A40042A06D063680B4015
:10277800082B0BD16368DB0308D523689B03BFD5FF
:102788006B68002BBCD1012005B0F0BD6B68012B34
:1027980013D1802322685B0213432360FFF7A2FF53
:1027A80080270600BF0223683B42A9D1FFF79AFFA2
:1027B800801B6428F7D90320E6E7002B16D123688D
:1027C8008E4A80271340236023688D4ABF02134036
:1027D8002360FFF787FF060023683B4200D18FE79D
:1027E800FFF780FF801B6428F6D9E4E7052B05D1A5
:1027F80080232268DB0213432360CAE723687F4AE9
:102808001340236023687E4A1340C6E70C227A4CA3
:102818006368134206D063681340082B10D16368BD
:10282800DB030DD423689B0702D5EB68012BAAD1E3
:10283800F82122682B698A43DB001343236063E78E
:10284800EA680123002A0FD0226802271343236075
:10285800FFF748FF060023683B42E9D1FFF742FF34
:10286800801B0228F7D9A6E7226802279A4322602C
:10287800FFF738FF060023683B4200D144E7FFF723
:1028880031FF801B0228F6D995E7EA6901235A4CE3
:10289800002A10D0626A022713436362FFF722FFFF
:1028A8000600636A3B4200D032E7FFF71BFF801B3C
:1028B8000228F6D97FE7626A02279A436262FFF725
:1028C80011FF0600636A3B4200D121E7FFF70AFFC8
:1028D800801B0228F6D96EE780220021464C52055B
:1028E800E3690091134208D1E3691343E361E369A3
:1028F80013400393039B012300938027414E7F00DD
:1029080033683B4206D0AB68012B13D1226A1343CC
:10291800236230E033683B433360FFF7E3FE019006
:1029280033683B42EFD1FFF7DDFE019BC01A6428F4
:10293800F6D940E70122002B14D1236A02279343DA
:102948002362236A033293432362FFF7CBFE060018
:10295800236A3B4216D0FFF7C5FE2B4B801B9842DB
:10296800F6D928E7052B16D1216A013B0B432362D0
:10297800236A1A432262FFF7B5FE02270600236A7C
:102988003B420FD0009B012B00D0C5E6E3691F4AEC
:102998001340E361C0E6236A934304222362236A57
:1029A8009343B5E7FFF79EFE174B801B9842E6D985
:1029B80001E7FFF797FE801B022800D8BFE6FAE67A
:1029C800053203D1626B9A436263BCE6626B0227ED
:1029D800134301226363636B93436363FFF782FED0
:1029E8000600636B3B4200D1B4E6FFF77BFE801B19
:1029F8000228F6D9DFE6C04600100240FFFFFEFFBE
:102A0800FFFFFBFF0070004088130000FFFFFFEF8F
:102A18000C22264C012063681340082B00D1B3E632
:102A28002368234A1340236002292FD1FFF75AFE57
:102A380080270600BF0423683B4221D10F22E36AA6
:102A480080269343EA6AB6041343E362696AAB6A71
:102A580062680B4317490A40134363608023226866
:102A68005B0413432360FFF73DFE050023683342F0
:102A780000D073E6FFF736FE401B0228F6D99AE627
:102A8800FFF730FE801B0228D5D994E6FFF72AFE0F
:102A980080260500B6042368334200D15EE6FFF7BE
:102AA80021FE401B0228F6D985E6C04600100240E8
:102AB800FFFFFFFEFFFFC2FFF7B501223E4C0500F6
:102AC80023680F0013408B4212D32A68930719D446
:102AD800D3071FD4012322681A40BA425DD82B6855
:102AE8005B0761D4E122354BD20300201A6008E06D
:102AF800236893430B432360236813408B42E4D03D
:102B08000120FEBDF0202E494B688343A86803438B
:102B18004B60DDE72A4E6A683368012A1AD19B03A5
:102B2800EED5032173688B4313437360FFF7DAFD17
:102B38006B680190012B15D10C2273681340042B8C
:102B4800C8D0FFF7CFFD019BC01A1E4B9842F3D99E
:102B58000320D6E7022A02D19B01E2D4D0E79B07E3
:102B6800DFD4CDE7022B12D00C2273681342B1D008
:102B7800FFF7B8FD019BC01A124B9842F4D9E7E75A
:102B8800FFF7B0FD019BC01A0E4B9842E0D80C220B
:102B980073681340082BF3D19CE722689A4322609C
:102BA80022681A429BD0ABE7054A074953680B4095
:102BB800E9680B43536095E70020024008010020B4
:102BC8000010024088130000FFF8FFFF0023F0B553
:102BD80087B00A681400DC4001D107B0F0BD0126B7
:102BE80014009E4034400294324200D192E04A6878
:102BF80015000192102295430395022D0DD107244B
:102C08000F251C40A400A540DA0892008218176A14
:102C1800AF430D69A5402F43176203225C00A24011
:102C2800D543AC46032507689743019A2A40A2403A
:102C3800039D3A43013D0260012D0FD86246856825
:102C48001540CA68A2402A4382604568019AB54384
:102C58000126120932409A402A4342606546C268FA
:102C68002A408D68A54080242A43C260019A6405E1
:102C780022424FD001250F27274A94692C4394619B
:102C880092699C082A4002351D40AD00AF4005926C
:102C9800059A224AA400A418A6680022BE439027D9
:102CA800FF05B8420CD01E4F0132B84208D01D4F64
:102CB8000132B84204D01C4F0132B84200D002326F
:102CC800AA403243A260194A029C1668029D019FDD
:102CD800E4433543FF0301D43500254015605668A9
:102CE800029D019F3543BF0301D43500254055603F
:102CF8009668029D019F3543FF0201D435002540A7
:102D08009560D568029E019F2E43BF0201D42540DD
:102D18002E00D66001335CE700100240000001403D
:102D28000004004800080048000C00480004014066
:102D3800002A01D0816170478162FCE7F8B5040080
:102D48000D0017001E002268D3692B405B1B5942F7
:102D58004B41BB4201D0002018E0069B0133F3D061
:102D6800069B002B13D123680C491A6803200A40DC
:102D78001A609A68A331FF318A439A60220020239F
:102D8800693213705370002368342370F8BDFFF75D
:102D9800A9FC069B801B9842D5D9E4E75FFEFFFF9C
:102DA800030070B59A681D6904682A435D69C169A2
:102DB8002A432068334D0A43284002432260626850
:102DC80031481D6A0240D868024362609A69A06867
:102DD8002A432E4D2840024303208025A2602C4A16
:102DE8002D02126B0240013A022A43D82948805C1E
:102DF800A94220D108281BD8FDF70EFA3E1A051A59
:102E08003E1A1A1A15005968234B4808C018FDF7CE
:102E18000DFA83B2002019000F221B0791435B0FA4
:102E28000B43E36070BD5968802348085B02EDE7F7
:102E380001200023EFE708281AD8FDF7EDF90F194C
:102E480005190F19191914005968144B4808C018A6
:102E5800FDF7ECF980B2E0600020E3E75968E12370
:102E68004808DB03F3E75968802348081B02EEE7AC
:102E78000120D7E7A942F1D15968E12348081B048A
:102E8800C4E7C046F369FFFFFFCFFFFFFFF4FFFF72
:102E980000100240443200080048E8010024F40011
:102EA80070B5041E01D1012070BD050069352B786D
:102EB800DAB2002B02D1030068331A7024230126EA
:102EC8002B70226820001368B3431360FFF768FF74
:102ED800B042E8D023680A495A6800200A4008210D
:102EE8005A609A688A439A601A68164322001E60DC
:102EF8002023E0666A3268342B7013702070D3E7A1
:102F0800FFF7FFFFF0B585B0039303006A3317009E
:102F18001A7804000D000220202A39D1013800292E
:102F280036D0002F34D08022A1685201914204D1BA
:102F38002269002A01D105422AD12200683211787B
:102F48000220012924D0012111700022E2662232D8
:102F58001A70FFF7C7FB23008021A26858331F802F
:102F68005F800600490104338A4215D12269002A8C
:102F780010D11F4A1A801F8822005A32138898B22B
:102F8800002B10D1230020226A3368341A70207075
:102F980005B0F0BDFF22EDE7002AECD12269002A36
:102FA800F8D07F22E6E713882021013B9BB21380EB
:102FB800039B0022009320003300FFF7BFFE002888
:102FC80013D1A2682368110080225201914207D1CF
:102FD8002269002A04D19B8C3B402B800235CBE729
:102FE8009B8C3B402B700135C6E70320D0E7C046D9
:102FF800FF010000F0B585B0039303006933029325
:103008001B7804000D0016000220202B48D101383F
:10301800002945D0002A43D08023A2685B019A4248
:1030280004D12369002B01D1014239D1230068332F
:103038001A780220012A33D001221A700023029A3A
:10304800E36621331370FFF74DFB230050331E80D6
:103058005E80802607007601210052310B889AB2E3
:10306800002B0ED1039B4021009320003B00FFF76B
:1030780065FE002813D12023029A6834137020704B
:103088000EE00B880022013B9BB20B80039B802142
:10309800009320003B00FFF751FE002802D00320D8
:1030A80005B0F0BDA3682268B34208D12369002B9C
:1030B80005D12B880235DB05DB0D1385CCE72B7892
:1030C80001351385C8E70000002103E00B4B5B586E
:1030D800435004310A480B4B42189A42F6D30A4A25
:1030E80002E0002313600432084B9A42F9D300E04F
:1030F80000BFFDF727F9FFF7CBF8FEE77C330008A0
:10310800000000207001002070010020140300203E
:10311800FEE70000F8B5C046F8BC08BC9E467047FC
:0C312800F8B5C046F8BC08BC9E467047D5
:1031340052096AD53036A538BF40A39E81F3D7FB28
:103144007CE339829B2FFF87348E4344C4DEE9CB72
:10315400547B9432A6C2233DEE4C950B42FAC34EE7
:10316400082EA16628D924B2765BA2496D8BD1259D
:1031740072F8F66486689816D4A45CCC5D65B69241
:103184006C704850FDEDB9DA5E154657A78D9D84E5
:1031940090D8AB008CBCD30AF7E45805B8B3450605
:1031A400D02C1E8FCA3F0F02C1AFBD0301138A6B1F
:1031B4003A9111414F67DCEA97F2CFCEF0B4E6734F
:1031C40096AC7422E7AD3585E2F937E81C75DF6EFD
:1031D40047F11A711D29C5896FB7620EAA18BE1B63
:1031E400FC563E4BC6D279209ADBC0FE78CD5AF409
:1031F4001FDDA8338807C731B11210592780EC5F4F
:1032040060517FA919B54A0D2DE57A9F93C99CEFAA
:10321400A0E03B4DAE2AF5B0C8EBBB3C83539961AB
:10322400172B047EBA77D626E169146355210C7DE9
:1032340030313233343536373839414243444546E8
:10324400040802001001002000000000000000003B
:10325400000000000000000000000000000000006A
:10326400000000000000000000000000000000005A
:10327400000000000000000000000000000000004A
:10328400000000000000000000000000000000003A
:10329400000000000000000000000000000000002A
:1032A40000000000000000005245454E54206D61AE
:1032B4006C6C6F632073756363656564656400009B
:1032C4002E2E2F2E2E2F2E2E2F2E2E2F2E2E2F2E15
:1032D4002E2F2E2E2F2E2E2F6E65776C69622F6C5B
:1032E4006962632F7374646C69622F72616E642EF9
:1032F400630000002C2066756E6374696F6E3A205B
:1033040000000000617373657274696F6E2022257A
:103314007322206661696C65643A2066696C652075
:10332400222573222C206C696E6520256425732563
:10333400730A0000232D302B20000000686C4C0021
:1033440065666745464700003031323334353637D9
:10335400383941424344454600000000303132339D
:1033640034353637383961626364656600000000BD
:04337400FD0100084F
:04337800D101000877
:10337C00C8585C1C000102030405060708090A0B67
:10338C000C0D0E0F101112131415161718191A1BF9
:10339C001C1D1E1F202122232425262728292A2BE9
:1033AC002C2D2E2F303132333435363738393A3BD9
:1033BC003C3D3E3F404142434445464748494A4BC9
:1033CC004C4D4E4F505152535455565758595A5BB9
:1033DC005C5D5E5F606162636465666768696A6BA9
:1033EC006C6D6E6F707172737475767778797A7B99
:1033FC007C7D7E7F808182838485868788898A8B89
:10340C008C8D8E8F909192939495969798999A9B78
:10341C009C9D9E9FA0A1A2A3A4A5A6A7A8A9AAAB68
:10342C00ACADAEAFB0B1B2B3B4B5B6B7B8B9BABB58
:10343C00BCBDBEBFC0C1C2C3C4C5C6C7C8C9CACB48
:10344C00CCCDCECFD0D1D2D3D4D5D6D7D8D9DADB38
:10345C00DCDDDEDFE0E1E2E3E4E5E6E7E8E9EAEB28
:10346C00ECEDEEEFF0F1F2F3F4F5F6F7F8F9FAFB18
:10347C00FCFDFEFF0000000000127A00100100208D
:10348C00000000008C3200086C3200084C3200083E
:10349C000000000000000000000000000000000020
:1034AC000000000000000000000000000000000010
:1034BC000000000000000000000000000000000000
:1034CC0000000000000000000000000000000000F0
:1034DC0000000000000000000000000000000000E0
:04000005080030D1EE
:00000001FF
