:020000040800F2
:1000000000100020E51100082D1200082D12000834
:100010002D1200082D1200082D120008000000000B
:100020000000000000000000000000002D12000889
:100030002D120008000000002D1200082D120008EB
:1000400000000000000000000000000000000000B0
:1000500000000000000000000000000000000000A0
:100060000000000000000000000000000000000090
:100070000000000000000000000000000000000080
:100080000000000000000000000000000000000070
:100090000000000000000000000000000000000060
:1000A0000000000000000000000000000000000050
:1000B0000000000000000000000000000000000040
:1000C0000000000000000000000000000000000030
:1000D0000000000000000000000000000000000020
:1000E0000000000000000000000000000000000010
:1000F0000000000000000000000000000000000000
:1001000000000000000000000000000000000000EF
:1001100000000000000000000000000000000000DF
:1001200000000000000000000000000000000000CF
:1001300000000000000000000000000000000000BF
:1001400000000000000000000000000000000000AF
:10015000000000000000000000000000000000009F
:10016000000000000000000000000000000000008F
:10017000000000000000000000000000000000007F
:08018000000000000000000077
:100188000448054B10B5834203D0044B002B00D024
:10019800984710BD14000020140000200000000043
:1001A80006480749091A8B10C90FC91810B5491014
:1001B80003D0044B002B00D0984710BD140000203A
:1001C800140000200000000010B5074C2378002B15
:1001D80009D1FFF7D5FF054B002B02D0044800E0FA
:1001E80000BF0123237010BD140000200000000090
:1001F80030120008054B10B5002B03D00449054800
:1002080000E000BFFFF7CCFF10BDC04600000000B3
:10021800180000203012000802B47146490849004D
:10022800095C49008E4402BC7047C046002243085E
:100238008B4274D303098B425FD3030A8B4244D3A6
:10024800030B8B4228D3030C8B420DD3FF220902E8
:1002580012BA030C8B4202D31212090265D0030BA7
:100268008B4219D300E0090AC30B8B4201D3CB039D
:10027800C01A5241830B8B4201D38B03C01A5241DF
:10028800430B8B4201D34B03C01A5241030B8B42E1
:1002980001D30B03C01A5241C30A8B4201D3CB02CC
:1002A800C01A5241830A8B4201D38B02C01A5241B1
:1002B800430A8B4201D34B02C01A5241030A8B42B4
:1002C80001D30B02C01A5241CDD2C3098B4201D3CC
:1002D800CB01C01A524183098B4201D38B01C01A4A
:1002E800524143098B4201D34B01C01A52410309C1
:1002F8008B4201D30B01C01A5241C3088B4201D370
:10030800CB00C01A524183088B4201D38B00C01A1C
:10031800524143088B4201D34B00C01A5241411A43
:1003280000D20146524110467047FFE701B5002050
:1003380000F006F802BDC0460029F7D076E77047FE
:100348007047C04670B50C4D0C4E761BB61005D0E4
:10035800002408CD01349847A642FAD100F064FF82
:10036800074D084E761BB61005D0002408CD013481
:100378009847A642FAD170BD5C1300085C130008C8
:100388005C13000860130008F7B56B4600279E1D34
:10039800DD1D012304002B70377000F0F7F90B4ABC
:1003A800B85CE15D88420ED10137102FF8D10024E6
:1003B80000F0F4F93200002C00D12A00722001214B
:1003C80000F09CF8FEBD0124F2E7C04600000020C2
:1003D80010B500F04BF900F075F900F0B3F900F032
:1003E80075F81021094A612000F06AF81123084ABB
:1003F8000849013BDBB2002B02D100F0D1F8FCE741
:100408001078085C10700132F3E7C04691030008C9
:1004180000000020481200080120704770B5002431
:10042800844201DB00201FE04D780B782E00303E1F
:10043800F6B2092E0CD816551D00303DEEB2092E25
:1004480015D8135D2D011D43155501340231E7E719
:100458002E00413E052E02D8373D1555ECE72E00FB
:10046800613E052E01D9012070BD573DF5E71D00FD
:10047800413D052D05D8373B155D1B012B43135511
:10048800E3E71D00613D052DEDD8573BF4E700007B
:10049800F0B5094E0500346801200F2C0BDCBF298C
:1004A80009D8064827013D54C0194160826003738A
:1004B800002001343460F0BD3000002034000020FA
:1004C80010B50023FFF7E4FF10BD000010B50021B0
:1004D800074A7620FFF7F4FF0021064A7720FFF746
:1004E800EFFF00217920044AFFF7EAFF10BDC0465C
:1004F80021040008590500083D050008F8B50D005D
:1005080014000F2700F06AF96519AC4203D10A20DC
:1005180000F064F9F8BD2378054E1B09F05C00F083
:100528005DF9237801343B40F05C00F057F9ECE7C3
:100538004813000807B56B46DA1D044B72201B6888
:1005480001211370FFF7DAFF00200EBD30000020F4
:100558000322114BF0B594461C6800230F4D8DB053
:10056800E6B2B34209DB614661436A467220C9B20A
:10057800FFF7C4FF00200DB0F0BD624669465A433C
:100588001801475D28188F544168007B6A4401337D
:1005980051709070DBB2E4E7300000203400002096
:1005A800F0B52F4CA54400F001F92E4B2E491A68DE
:1005B80000239A4204DC07D193239B009D44F0BD9D
:1005C8001C010C5D84423FD10127274D1C012E19C7
:1005D800337B3B4218D000236A46137200F0E6F8DA
:1005E800C8226B469B18187000F0E0F8C9226B46C9
:1005F8009B18187002AA380032A9FFF70FFF0028CD
:10060800DAD16B461B7A736000262B195B685B0096
:10061800B3421BD800F0CAF80A2801D00D28CBD164
:100628002C19656802AA280032A9FFF7F7FE0028EE
:10063800C2D1E9B2A36802A8984701AA10700121A3
:100648007A20FFF75BFFB7E70133B2E700F0AEF8B7
:100658000A28B1D00D28AFD032ABF0540136D4E718
:10066800B4FDFFFF3000002034000020F0B59027D3
:10067800002401250326042397B0FF05380005A9A7
:10068800059306950794089600F02AFB102305A900
:100698003800059306950794089600F021FB05237A
:1006A8000AA80B930A960D94139400F0ADF807234B
:1006B800210001A8019302950394049400F086FA9E
:1006C80017B0F0BD802170B51B4C8902626988B0F3
:1006D8000A436261636990200B400193019BC02328
:1006E800DB00012503260393022303A9C005049315
:1006F80005950795069600F0F3FA8021A269C901CD
:100708000A43A261A3690D480B400293029B236B25
:10071800B3431D430A4B2563036096231B024360C2
:1007280000238360C360036183610C33436100F07D
:1007380041FC08B070BDC0460010024038010020DE
:10074800003801408020104A70B551698002014389
:100758005161536986B0034000939024009B0123A4
:1007680080250026E4052000029301A902330493A2
:100778000195039600F0B4FA32002900200000F039
:1007880061FB06B070BDC04600100240902010B555
:1007980001228021C00500F055FB10BD902010B546
:1007A80000228021C00500F04DFB10BD37B508259B
:1007B8006B46DC1D012232232100064800F02CFC88
:1007C800002801D120783EBD034A136A2B431362E7
:1007D800EEE7C046380100200038014007B56B46F7
:1007E8000122D91D0870024B024800F08DFC07BD9C
:1007F8008813000038010020024B1868421C1A6058
:100808007047C04634010020F0B50368050085B084
:10081800DB072FD42B689B0700D581E02B681B07CB
:1008280000D5BCE02B685B0700D5DFE02B68DB0652
:100838001AD56A690423B54C012A00D04AE1616BD4
:1008480002270B436363636B1A436263FFF7D4FFAA
:100858000600636B3B4200D135E1F821626BAB695E
:100868008A43DB0013436363296A002900D059E1F6
:10087800002013E00C21A54C62680A40042A06D027
:1008880063680B40082B0BD16368DB0308D523682A
:100898009B03BFD56B68002BBCD1012005B0F0BD10
:1008A8006B68012B13D1802322685B0213432360FA
:1008B800FFF7A2FF80270600BF0223683B42A9D1A9
:1008C800FFF79AFF801B6428F7D90320E6E7002B7F
:1008D80016D123688E4A80271340236023688D4AE7
:1008E800BF0213402360FFF787FF060023683B42DF
:1008F80000D18FE7FFF780FF801B6428F6D9E4E773
:10090800052B05D180232268DB0213432360CAE745
:1009180023687F4A1340236023687E4A1340C6E752
:100928000C227A4C6368134206D063681340082B84
:1009380010D16368DB030DD423689B0702D5EB68ED
:10094800012BAAD1F82122682B698A43DB001343C3
:10095800236063E7EA680123002A0FD02268022790
:1009680013432360FFF748FF060023683B42E9D1A1
:10097800FFF742FF801B0228F7D9A6E72268022763
:100988009A432260FFF738FF060023683B4200D1F4
:1009980044E7FFF731FF801B0228F6D995E7EA699B
:1009A80001235A4C002A10D0626A0227134363625B
:1009B800FFF722FF0600636A3B4200D032E7FFF7E9
:1009C8001BFF801B0228F6D97FE7626A02279A4339
:1009D8006262FFF711FF0600636A3B4200D121E71C
:1009E800FFF70AFF801B0228F6D96EE78022002154
:1009F800464C5205E3690091134208D1E369134359
:100A0800E361E36913400393039B01230093802769
:100A1800414E7F0033683B4206D0AB68012B13D1AF
:100A2800226A1343236230E033683B433360FFF7A5
:100A3800E3FE019033683B42EFD1FFF7DDFE019BF7
:100A4800C01A6428F6D940E70122002B14D1236A82
:100A5800022793432362236A033293432362FFF7F7
:100A6800CBFE0600236A3B4216D0FFF7C5FE2B4B90
:100A7800801B9842F6D928E7052B16D1216A013B3D
:100A88000B432362236A1A432262FFF7B5FE02274B
:100A98000600236A3B420FD0009B012B00D0C5E61D
:100AA800E3691F4A1340E361C0E6236A93430422C3
:100AB8002362236A9343B5E7FFF79EFE174B801B1B
:100AC8009842E6D901E7FFF797FE801B022800D875
:100AD800BFE6FAE6053203D1626B9A436263BCE66D
:100AE800626B0227134301226363636B934363635F
:100AF800FFF782FE0600636B3B4200D1B4E6FFF7C6
:100B08007BFE801B0228F6D9DFE6C04600100240B3
:100B1800FFFFFEFFFFFFFBFF00700040881300008F
:100B2800FFFFFFEF0C22264C012063681340082BBF
:100B380000D1B3E62368234A1340236002292FD14A
:100B4800FFF75AFE80270600BF0423683B4221D1E5
:100B58000F22E36A80269343EA6AB6041343E362EA
:100B6800696AAB6A62680B4317490A4013436360BA
:100B7800802322685B0413432360FFF73DFE0500D2
:100B88002368334200D073E6FFF736FE401B022885
:100B9800F6D99AE6FFF730FE801B0228D5D994E6ED
:100BA800FFF72AFE80260500B6042368334200D1E9
:100BB8005EE6FFF721FE401B0228F6D985E6C0460F
:100BC80000100240FFFFFFFEFFFFC2FFF7B5012242
:100BD8003E4C050023680F0013408B4212D32A684D
:100BE800930719D4D3071FD4012322681A40BA42A5
:100BF8005DD82B685B0761D4E122354BD203002016
:100C08001A6008E0236893430B432360236813406A
:100C18008B42E4D00120FEBDF0202E494B6883436F
:100C2800A86803434B60DDE72A4E6A683368012AE7
:100C38001AD19B03EED5032173688B43134373606A
:100C4800FFF7DAFD6B680190012B15D10C22736850
:100C58001340042BC8D0FFF7CFFD019BC01A1E4BD1
:100C68009842F3D90320D6E7022A02D19B01E2D4A5
:100C7800D0E79B07DFD4CDE7022B12D00C22736894
:100C88001342B1D0FFF7B8FD019BC01A124B98422E
:100C9800F4D9E7E7FFF7B0FD019BC01A0E4B984265
:100CA800E0D80C2273681340082BF3D19CE7226824
:100CB8009A43226022681A429BD0ABE7054A07494B
:100CC80053680B40E9680B43536095E700200240E6
:100CD800100000200010024088130000FFF8FFFFFA
:100CE8000023F0B587B00A681400DC4001D107B0D2
:100CF800F0BD012614009E4034400294324200D1D7
:100D080092E04A6815000192102295430395022D3E
:100D18000DD107240F251C40A400A540DA08920035
:100D28008218176AAF430D69A5402F431762032243
:100D38005C00A240D543AC46032507689743019A57
:100D48002A40A240039D3A43013D0260012D0FD87D
:100D5800624685681540CA68A2402A438260456891
:100D6800019AB5430126120932409A402A4342604B
:100D78006546C2682A408D68A54080242A43C2601F
:100D8800019A640522424FD001250F27274A94690A
:100D98002C43946192699C082A4002351D40AD009D
:100DA800AF400592059A224AA400A418A66800221A
:100DB800BE439027FF05B8420CD01E4F0132B842FF
:100DC80008D01D4F0132B84204D01C4F0132B8423E
:100DD80000D00232AA403243A260194A029C166827
:100DE800029D019FE4433543FF0301D435002540AC
:100DF80015605668029D019F3543BF0301D4350035
:100E0800254055609668029D019F3543FF0201D435
:100E1800350025409560D568029E019F2E43BF028C
:100E280001D425402E00D66001335CE70010024053
:100E3800000001400004004800080048000C004879
:100E480000040140002A01D0816170478162FCE7FB
:100E5800F8B504000D0017001E002268D3692B4066
:100E68005B1B59424B41BB4201D0002018E0069B56
:100E78000133F3D0069B002B13D123680C491A6861
:100E880003200A401A609A68A331FF318A439A60A6
:100E980022002023693213705370002368342370B2
:100EA800F8BDFFF7A9FC069B801B9842D5D9E4E75B
:100EB8005FFEFFFF030070B59A681D6904682A4346
:100EC8005D69C1692A432068334D0A4328400243BB
:100ED8002260626831481D6A0240D8680243626035
:100EE8009A69A0682A432E4D284002430320802592
:100EF800A2602C4A2D02126B0240013A022A43D802
:100F08002948805CA94220D108281BD8FFF784F91A
:100F18003E1A051A3E1A1A1A15005968234B480832
:100F2800C018FFF783F983B2002019000F221B07AE
:100F380091435B0F0B43E36070BD596880234808F9
:100F48005B02EDE701200023EFE708281AD8FFF736
:100F580063F90F1905190F19191914005968144B59
:100F68004808C018FFF762F980B2E0600020E3E7A4
:100F78005968E1234808DB03F3E7596880234808E8
:100F88001B02EEE70120D7E7A942F1D15968E12316
:100F980048081B04C4E7C046F369FFFFFFCFFFFF03
:100FA800FFF4FFFF00100240581300080048E80152
:100FB8000024F40070B5041E01D1012070BD0500A5
:100FC80069352B78DAB2002B02D1030068331A7026
:100FD800242301262B70226820001368B343136072
:100FE800FFF768FFB042E8D023680A495A68002032
:100FF8000A4008215A609A688A439A601A68164318
:1010080022001E602023E0666A3268342B70137059
:101018002070D3E7FFF7FFFFF0B585B00393030017
:101028006A3317001A7804000D000220202A39D1EB
:101038000138002936D0002F34D08022A16852010F
:10104800914204D12269002A01D105422AD1220005
:10105800683211780220012924D001211170002260
:10106800E26622321A70FFF7C7FB23008021A268CC
:1010780058331F805F800600490104338A4215D126
:101088002269002A10D11F4A1A801F8822005A326A
:10109800138898B2002B10D1230020226A336834B9
:1010A8001A70207005B0F0BDFF22EDE7002AECD1E0
:1010B8002269002AF8D07F22E6E713882021013B25
:1010C8009BB21380039B0022009320003300FFF79C
:1010D800BFFE002813D1A2682368110080225201A4
:1010E800914207D12269002A04D19B8C3B402B8076
:1010F8000235CBE79B8C3B402B700135C6E70320BC
:10110800D0E7C046FF010000F0B585B003930300A7
:10111800693302931B7804000D0016000220202B6F
:1011280048D10138002945D0002A43D08023A2683D
:101138005B019A4204D12369002B01D1014239D1C4
:10114800230068331A780220012A33D001221A704A
:101158000023029AE36621331370FFF74DFB230047
:1011680050331E805E8080260700760121005231B0
:101178000B889AB2002B0ED1039B402100932000CC
:101188003B00FFF765FE002813D12023029A68343C
:10119800137020700EE00B880022013B9BB20B807D
:1011A800039B8021009320003B00FFF751FE00289D
:1011B80002D0032005B0F0BDA3682268B34208D16D
:1011C8002369002B05D12B880235DB05DB0D138540
:1011D800CCE72B7801351385C8E70000002103E030
:1011E8000B4B5B58435004310A480B4B42189A4248
:1011F800F6D30A4A02E0002313600432084B9A42ED
:10120800F9D300E000BFFFF79DF8FFF7E1F8FEE72C
:1012180064130008000000201400002014000020BF
:10122800A8010020FEE70000F8B5C046F8BC08BCDD
:101238009E467047F8B5C046F8BC08BC9E46704745
:1012480052096AD53036A538BF40A39E81F3D7FB33
:101258007CE339829B2FFF87348E4344C4DEE9CB7D
:10126800547B9432A6C2233DEE4C950B42FAC34EF2
:10127800082EA16628D924B2765BA2496D8BD125A8
:1012880072F8F66486689816D4A45CCC5D65B6924C
:101298006C704850FDEDB9DA5E154657A78D9D84F0
:1012A80090D8AB008CBCD30AF7E45805B8B3450610
:1012B800D02C1E8FCA3F0F02C1AFBD0301138A6B2A
:1012C8003A9111414F67DCEA97F2CFCEF0B4E6735A
:1012D80096AC7422E7AD3585E2F937E81C75DF6E08
:1012E80047F11A711D29C5896FB7620EAA18BE1B6E
:1012F800FC563E4BC6D279209ADBC0FE78CD5AF414
:101308001FDDA8338807C731B11210592780EC5F59
:1013180060517FA919B54A0D2DE57A9F93C99CEFB5
:10132800A0E03B4DAE2AF5B0C8EBBB3C83539961B6
:10133800172B047EBA77D626E169146355210C7DF4
:1013480030313233343536373839414243444546F3
:041358000408020083
:04135C00FD01000887
:04136000D1010008AF
:101364005104F5C300C78F7F9F04F550C34385C361
:0413740000127A00E9
:04000005080011E5F9
:00000001FF
